:1010000000000420517C0300957C0300977C0300C2
:10101000997C03009B7C03009D7C03000000000082
:101020000000000000000000000000009F7C0300A2
:10103000A17C030000000000A37C0300A57C03004A
:10104000E54B0300CD340300A77C0300A77C03001D
:10105000A77C0300A77C0300A77C0300A77C0300F8
:10106000A77C0300A77C0300A77C0300A77C0300E8
:10107000A77C0300016F0000A77C0300A77C03008E
:10108000A77C0300A77C0300A77C0300A77C0300C8
:10109000A77C0300A77C0300A77C0300A77C0300B8
:1010A000A77C0300A77C0300A77C0300A77C0300A8
:1010B000A77C0300A77C03000000000000000000E4
:1010C000A77C0300A77C0300A77C0300A77C030088
:1010D00011630000A77C0300A77C0300A15B030051
:1010E000A77C0300A77C0300A77C0300000000008E
:1010F00000000000A77C030000000000A77C0300A4
:1011000000000000000000000000000000000000DF
:1011100000000000000000000000000000000000CF
:1011200000000000000000000000000000000000BF
:1011300000000000000000000000000000000000AF
:10114000000000000000000000000000000000009F
:10115000000000000000000000000000000000008F
:10116000000000000000000000000000000000007F
:10117000000000000000000000000000000000006F
:10118000000000000000000000000000000000005F
:10119000000000000000000000000000000000004F
:1011A000000000000000000000000000000000003F
:1011B000000000000000000000000000000000002F
:1011C000000000000000000000000000000000001F
:1011D000000000000000000000000000000000000F
:1011E00000000000000000000000000000000000FF
:1011F00000000000000000000000000000000000EF
:1012000010B5054C237833B9044B13B10448AFF340
:1012100000800123237010BD480100200000000061
:1012200038D1030008B5034B1BB103490348AFF3A2
:10123000008008BD000000004C01002038D10300F0
:10124000A3F5803A704700BF174B002B08BF134B24
:101250009D46FFF7F5FF00218B460F461348144AC1
:10126000121A37F0DFFA0E4B002B00D098470D4BC7
:10127000002B00D098470020002104000D000D48ED
:10128000002802D00C48AFF3008037F061FA20004C
:10129000290000F080F937F047FA00BF000008008D
:1012A00000000000000000000000042048010020B1
:1012B000ACED00200000000000000000094B1A887F
:1012C00072B9094A1188094A1288C2F50060814240
:1012D000C8BF81B2198019B10548104406F086B81C
:1012E000704700BF680300206C0B00206A0B0020D1
:1012F0006A0300200749084A0B8810880344C3F397
:101300000A030B8005490B881B1A0B8000231380EE
:10131000FFF7D4BF6A0B0020680300206C0B00208D
:101320002DE9F047194FDFF86C9006460D464FF057
:10133000000AB8463C88B9F800001549C4F50064B5
:10134000A4B2AC4228BF2C4606EB040C66450CD078
:10135000B8F8003016F801EBC218C2F30A020133E4
:1013600001F802E0A8F80030F0E72D1BADB25444BC
:10137000FFF7A4FF1FFA84FA2DB106F021F810B987
:10138000FFF7B8FFD6E75046BDE8F0876C0B0020AA
:101390006A0300206A0B00202DE9F743354D2E88A3
:1013A0000F461346A846CEB90A4633484FF40061AB
:1013B00037F0C2FBB0F5006F044607D32F4839461B
:1013C00006F0CEF9204603B0BDE8F0832C4B288010
:1013D0001E802C4B1E80FFF771FFF3E7284A26483A
:1013E000158801932E44C6F30A06B5428CBFAD1B87
:1013F000C6F50065ADB2914630440A46294637F03D
:101400009BFB041E04DA1D48394606F0A9F9E2E701
:10141000A54205DDB8F800302344A8F80030DAE72B
:10142000B4F5006F22DAB8F800306BB1FFF746FF71
:1014300005F0C6FF10B9FFF75DFFF4E706F06EF8A0
:101440000146114806F08CF9019B0B483A464FF4CF
:10145000006137F071FB041E00DCFEE7094AA8F8C2
:1014600000400023A9F800301380B4E7074839464C
:10147000CBE700BF6C0B00206A030020C89D03006F
:101480006A0B002068030020E99D0300029E030010
:10149000F8B52A4F2A4C05464618AE424CD92B784F
:1014A0000D2B26D011D8082B11D00A2B1DD0238844
:1014B000B3F5FF7F30D801212846FFF731FF23889D
:1014C0005A1C228029781F4A0DE07F2BEFD12388F8
:1014D00013B303211C48FFF723FF2388194A013B5C
:1014E0009BB223800021D15416E0184B1B780D2BA2
:1014F00012D002213846FFF713FF2388114900223A
:10150000581ECA54944601445BB902B123800D4869
:1015100001F027FE002323800C4B15F8012B1A70D5
:10152000BBE708780A2801D00D28EED1013B01F86D
:1015300001C99BB20122E7E7F8BD00BF1F9E03006F
:1015400066030020650100201C9E0300640100204A
:10155000FFF7D0BE07B50A49019000230B80094967
:101560000B8009490B8009490B8005F021FF019A86
:101570000749104603B05DF804EB01F0F0BD00BF71
:10158000660300206A0B00206C0B0020680300201B
:1015900099130000704770B505460E46314628463F
:1015A00005F0C8FB05F0BCFF0446FFF7D3FF05F0CC
:1015B000E9FB18B1204605F0B9FFEFE7204606F039
:1015C00088F9204605F0E4FBF1E70B68002B0CBF1F
:1015D00007202320704708B5006805F0A9FF002008
:1015E00008BD0000F0B58DB0044602A90068144D96
:1015F000144F06F0CAF8BDF808201349204603F03E
:101600006BFDBDF80A201149204603F065FD09264F
:101610002B680CAA13446A680CA90A44204632F8C5
:10162000282C009233F8283CAA68394603F054FD70
:10163000013E05F10C05EBD130460DB0F0BD00BF09
:10164000FCAE0300349E0300219E03002B9E03008A
:101650002DE9F3410C6805460E4674B9544903F070
:101660003BFD5449284603F037FD5349284603F013
:1016700033FD204602B0BDE8F0814E49304621F0EE
:10168000E5FB002842D07368002B31D128684B4E0F
:10169000DFF8448106F04DF84949026804462846BF
:1016A00003F01AFD0D273368E35800937368424630
:1016B0000421284603F060FD013F06F10806F2D13F
:1016C000626C4049404EDFF81081284603F004FD6B
:1016D00010273368E3580093736842460421284674
:1016E00003F04AFD013F06F10806F2D10024C0E7ED
:1016F0003649301D21F0AAFB08B90724B9E7B468C0
:10170000002CFAD1286806F018F8B2E72A493046CA
:1017100021F09CFB10B373689BB928682C4CDFF850
:10172000BC8006F080FA0926074623686268FB5AE7
:101730004146284603F0D0FC013E04F10804F4D1F0
:10174000D4E72249301D21F081FB0028D5D0B468B0
:10175000002CD2D1286806F06AFA8AE7144930468C
:1017600021F074FB0028C8D073689BB92868194C15
:10177000DFF8688006F04CFA0426074623686268A2
:10178000FB584146284603F0A7FC013E04F108043B
:10179000F4D1ABE70D49301D21F058FB0028ACD047
:1017A000B468002CA9D1286806F036FA61E700BFBA
:1017B00015A603003E9E0300429E0300DCB003001A
:1017C000469E0300599E03005CB00300AAB50300C7
:1017D000F4AF03003CB00300529E0300659E03007B
:1017E00008B5006805F0A6FE002008BD2DE9F0430D
:1017F0000E4687B040490546304621F027FB074694
:1018000000B104363368FBB928683C4EDFF8088124
:10181000DFF8089105F0A4FE0446002C4FD02146C5
:10182000284603F0F9FB4FB1637C032B94BF59F8B2
:10183000232042463146284603F0BAFB3049284669
:1018400003F04AFC6469E8E72E49304621F0FEFACD
:10185000B8B17068694621F0D3FA78B94FF4507383
:10186000ADF810309DF81230286823F0030343F0E0
:10187000030369468DF8123005F076FE07B0BDE827
:10188000F0832149304621F0E1FA044650B17068F6
:10189000694621F0B5FA0028F0D12868694605F0BC
:1018A00068FEEBE71949304621F0D0FA074640B10F
:1018B000286806F0B8F80146284603F039FC2046AF
:1018C000DCE71349304621F0C1FA044640B12868EC
:1018D00006F0A1F80146284603F02AFC3846CDE779
:1018E0000C49304621F0B2FA18B1286806F097F892
:1018F000E1E72320C2E700BF6C9E03006F9E030058
:1019000002BC03007A9E03007E9E0300829E0300B9
:101910008C9E0300919E030049B4030094AE030023
:1019200037B504466946006806F0E0F80546E0B9B8
:10193000009A0F49204603F0CFFB9DF804200D4983
:10194000204603F0C9FB9DF805200B49204603F013
:10195000C3FB9DF806200949204603F0BDFB9DF816
:1019600007200749204603F0B7FB284603B030BDE7
:10197000979E0300A89E0300BD9E0300B69E030031
:10198000CE9E030070B50C6886B005460E465CB965
:10199000006802A906F029FA2846102202A903F0DD
:1019A000AFFB204606B070BD4B685BB9102202A9A0
:1019B000204621F02AFA0028F4D1286802A906F06E
:1019C00019FAEFE70A49304621F040FA70B1286869
:1019D000746806F034F80190286805F0B3FF0199A7
:1019E000024602AB204605F068FDE4E70720D9E790
:1019F000E39E0300303003F08FBA000070B5044658
:101A000000680E4610F062F8054605F095FD854227
:101A10000BD00849304621F019FA40B1204606495A
:101A20002A4603F059FB002070BD0C20FCE707207C
:101A3000FAE700BFE69E0300FF9D030010B50446D1
:101A4000006806F070F803490246204603F044FBA4
:101A5000002010BD43A5030010B50446006806F041
:101A6000BFF8054A0549002818BF1146204603F073
:101A700033FB002010BD00BFEE9E0300F39E030069
:101A80002C3003F041B8703003F0C2BD343004F0A4
:101A90006DB80968006836F0F6BF000038B50C680C
:101AA0000546084644B905F047FD08490246284660
:101AB00003F012FB002038BD054921F0C7F910B131
:101AC0000449C622F3E72320F5E700BFFF9D03008A
:101AD000F99E0300329F030038B50C4605460949BC
:101AE000204621F0B3F950B1646844B905F036FEE0
:101AF00005490246284603F0EFFA204638BD072084
:101B0000FCE700BFFD9E0300329F030038B50C6860
:101B1000054664B9074903F04BFA0749284603F024
:101B200047FA2846054903F0D7FA204638BD232056
:101B3000FCE700BF039F0300059F0300A9A003006B
:101B40001FB50B6804463BBB006801A905F070FC9B
:101B5000E8B91249204603F0BFFABDF80420104945
:101B6000204603F0B9FA9DF80C200E49204603F0F8
:101B7000B3FABDF806200C49204603F0ADFA029AEC
:101B80000A49204603F0A8FA002004B010BD084915
:101B9000204603F0A1FAF7E72320F6E70A9F0300A7
:101BA000179F0300289F0300359F0300479F0300F2
:101BB000599F030038B50D680446006825B12946D1
:101BC000BDE8384005F05DBF05F057FF0349024608
:101BD000204603F081FA284638BD00BFFF9D030070
:101BE00037B5054608680DF1070168B9286804F0A3
:101BF00097FD044628B99DF907200949284603F0B6
:101C00006BFA204603B030BD21F0EBF80446002803
:101C1000F7D19DF90710286804F096FD0446F0E717
:101C2000749F030037B50C6805466CB9006805F071
:101C30006BFC0E494FF47A72B0FBF2F2284603F0C7
:101C40004BFA204603B030BD4B686BB901A9204662
:101C500021F03EF90028F5D1019B28684FF47A71F4
:101C6000594305F056FCEDE70720EBE7329F0300F0
:101C70000B6837B505460C467BB900680DF10701C6
:101C800004F080FD044628B99DF907201349284631
:101C900003F022FA204603B030BD1149204621F05E
:101CA000D5F8C8B160680DF1070148B9286804F09B
:101CB00069FD04460028EDD19DF907200949E6E7B2
:101CC00021F08FF804460028E4D19DF90710286818
:101CD00004F062FD0446DDE70724DBE76B9F0300A9
:101CE0007B9F0300329F030070B50E6805460C46CB
:101CF00086B9006805F030FC044628B12846104932
:101D000003F0EAF9304670BD28460E4903F0E4F9C5
:101D10002046F8E70A49204621F098F8064628B1FF
:101D200001212868BDE8704005F00ABC054920463D
:101D300021F08CF808B13146F3E70720E3E700BF54
:101D4000839F0300869F030038B50C6805464CB995
:101D5000006805F0E0FE04490246284603F0BCF99D
:101D6000204638BD2320FCE739A1030038B50D68B3
:101D70000446006825B12946BDE8384005F063BE39
:101D800005F05DFE03490246204603F0A5F928460A
:101D900038BD00BFFF9D03000B6837B505460C46F4
:101DA00093B900680DF1060104F092FF044640B9B2
:101DB000BDF806209DF806300C49120A284603F0AB
:101DC0008BF9204603B030BD084621F038F80228D0
:101DD0000AD1236828681A78597801EB022189B260
:101DE00004F082FF0446ECE70724EAE78B9F030038
:101DF00070B50E6804460D465EB9006805F070FEC9
:101E000005F072FE18490246204603F065F9304697
:101E100070BD1649284621F019F820B12068BDE8A8
:101E2000704005F04ABE1249284621F00FF820B153
:101E30002068BDE8704005F045BE0E49284621F0F7
:101E400005F820B12068BDE8704005F049BF0A4997
:101E5000284620F0FBFF20B12068BDE8704005F067
:101E600050BF0720D4E700BFFF9D0300909F0300F1
:101E7000999F03009F9F0300A69F0300F8B50E469D
:101E800005461249304620F0E1FF074628B10121FE
:101E90002868BDE8F84005F091BE0D49304620F0B5
:101EA000D5FF044608B13946F2E70A49304620F02A
:101EB000CDFF40B105F092FE07490246284603F0E7
:101EC0000BF92046F8BD2320FCE700BFEABF030062
:101ED000AD9F0300E69E030039A1030037B5054618
:101EE00008680DF1070168B9286804F00FFC044682
:101EF00028B99DF907200949284603F0EDF8204646
:101F000003B030BD20F06DFF04460028F7D19DF9E5
:101F10000710286804F0CAFE0446F0E7749F030027
:101F200010B504460068884703490246204603F07E
:101F3000D3F8002010BD00BF39A103002DE9F04304
:101F40000D688FB004460E4675BB0068DFF88880C8
:101F500005F074FEA9460746AEB2B74232D92068F2
:101F6000ADF8069006AA314605F0E8FED0B99DF816
:101F70003730C3F3C0021B0714D4ADF80620206825
:101F800002AB0DF10602314605F0DFFE50B94146C5
:101F90002046BDF8282003F00BF802A9204603F0E4
:101FA000C7F8ECE70135D7E70949304620F04EFF86
:101FB00050B1736853B907492046FFF7B1FF0FB01E
:101FC000BDE8F0830020FAE72320F8E70720F6E7D2
:101FD0001DA603004F7C0000B29F030073B50C6880
:101FE00005460E463CB10DF10701204620F0F9FEF2
:101FF00058B102B070BD006805F015FF08490246EF
:10200000284603F069F82046F3E773682BB99DF979
:102010000710286805F00BFFEBE70720E9E700BF92
:10202000329F0300F0B50546134B144A144F154E6A
:102030008DB0022103F0DEF8286805F03DFF04466C
:10204000B4B120463022694605F0D1FA6A463946D5
:10205000284602F0ADFF04F112003022694605F077
:10206000C6FA6A463146284603F036F8246BE7E79D
:1020700020460DB0F0BD00BF7CAF030074AF03007D
:10208000B99F0300C29F030030B50C6885B00546B8
:102090005CB90068694605F09EFC28461022694636
:1020A00003F02EF8204605B030BD102269462046C8
:1020B00020F0ABFE0028F6D12868694605F090FCB8
:1020C000F1E7000073B50C6805460E4634B101A96E
:1020D000204620F0FDFE58B102B070BD006805F04A
:1020E000E6FA08490246284602F0F6FF2046F3E7E2
:1020F000736823B90199286805F0DEFAECE7072038
:10210000EAE700BF39A103002DE9F0410E468AB08D
:1021100000233E49ADF802300446304620F096FEDA
:102120000546002867D13A49304620F08FFE002846
:1021300067D107200AB0BDE8F081BDF81020414604
:10214000204602F035FF206801AA0DF1020105F0DA
:10215000BFFC002849D1002DEFD09DF8243013F0AA
:10216000080F14BF432252223946204602F020FFB6
:10217000BDF810203146204602F01AFF039A254987
:10218000204602F015FF9DF91D202349204602F04C
:102190000FFF9DF91E202149204602F009FF9DF8FE
:1021A00024201F49204602F0010202F001FF9DF8A1
:1021B00024201B492046C2F3400202F0F9FE9DF89C
:1021C00024201749C2F38002204602F0F1FE204687
:1021D000144902F0EDFE01A92046082202F00AFF90
:1021E0001149204602F078FFADE720460F4902F082
:1021F00073FF00209EE70E4B0E4A0921204602F095
:10220000F9FFDFF83C800C4F0C4E9CE7CC9F03009D
:10221000D29F0300E99F0300F09F0300F79F030094
:10222000FE9F0300C9A30300D9A3030002BC03005F
:10223000E8AF0300C4AF0300D79F0300DF9F030094
:10224000E19F0300024B186800B9FEE7704700BF2A
:10225000700B0020037813F0010F0B461CBF722295
:1022600003F8012B0278920744BF642203F8012B84
:102270000278520744BF6E2203F8012B8B4204BF41
:102280002D2203F8012B00221A7008467047000027
:102290007FB50C68002305460E468DF8043084B9DE
:1022A000006805F078FB03A98DF8080002A8FFF785
:1022B000D1FF1E490246284602F00EFF204604B018
:1022C00070BD1B49304620F0C1FD38BB3368014664
:1022D000013B044613F8012F5AB16E2A05D0722A29
:1022E00005D0642A20D10124F4E70121F2E701207E
:1022F000F0E728B19DF8043043F001038DF8043075
:102300002CB19DF8043043F002038DF8043029B15C
:102310009DF8043043F004038DF804309DF8041058
:10232000286805F047FBCAE70720C8E7FF9D0300C0
:1023300003A00300F0B50446A1B00D460026227CA0
:10234000F3B29A421CD9E268284652F83310DF00F3
:1023500020F07CFD01360028F1D06946284620F0A7
:102360007EFDE36864693B4428465E6820F082FD98
:102370000138C1B201AA2046B047002021B0F0BD0B
:102380002320FBE770B50D460949064620F05EFDA7
:10239000044618B101232B70002070BD054930465A
:1023A00020F054FD08B12C70F6E72320F5E700BFBC
:1023B00005A003000CA00300F0B50B6885B005462E
:1023C0000E4653B9006805F0D9F80446ACB1214671
:1023D000284602F0ADFE2469F8E72F49304620F088
:1023E00035FD68B17068694620F00AFD044620B9E1
:1023F0002868694605F0C6F80446204605B0F0BDD9
:102400002649304620F022FD58B17068694620F018
:10241000F7FC04460028F0D12868694605F0B7F8B3
:10242000EAE71F49304620F011FD0746B0B1746855
:102430003CB9286805F0B0F80146284602F06CFE69
:10244000DBE76946301DFFF79DFF04460028D4D125
:102450009DF80010286805F0A3F8CEE71149304632
:1024600020F0F4FC044640B1286805F0E0FA01468B
:10247000284602F05DFE3C46BFE70B49304620F09F
:10248000E5FC38B1286805F0D6FA0146284602F086
:102490004FFEB2E72324B0E77A9E03007E9E03003E
:1024A00014A0030020A0030026A003000B6837B58A
:1024B0000546084673B9286805F018F910B1286870
:1024C00004F0C8F80146284602F026FE0024204603
:1024D00003B030BD0DF10701FFF754FF044600289B
:1024E000F5D19DF807201AB92868114605F0F9F8CA
:1024F0009DF80710286805F0FFF804460028E6D18B
:102500009DF80730002BE2D0024928682A4605F0E2
:10251000E8F8DCE74129000037B50C6805460846B5
:102520004CB9286805F098FB0146284602F0F4FDF6
:10253000204603B030BD0DF10701FFF723FF00284F
:10254000F7D19DF80710286805F08BFBF1E770B50F
:10255000064600680C4608B9072070BD2F2136F0EA
:1025600085FA054688B104F10801013020F09CFC91
:102570000028F2D1227A013A3F2AEDD8287030683B
:102580002146BDE8704020F099BB1720E5E70968B7
:10259000002330B5136001394FF47A730A2411F81F
:1025A000010FE8B1A0F13005092D11D8B3F57A7FFC
:1025B00002BF10686043106008781568303803FB6C
:1025C0000050B3F57A7F1060E9D0B3FBF4F3E6E78F
:1025D0002E2804D1B3F57A7F01D16423DFE70720E9
:1025E00030BD0000F0B50E4691B004464649304675
:1025F00020F02CFC28B1206805F064F9002011B00F
:10260000F0BD4249304620F021FC054600B10436B9
:102610000021382202A836F005F93D49304620F065
:1026200015FC002835D0706802A920F0E9FB0028CD
:10263000E5D1206804F094FF07460FB90720DEE7D4
:1026400002A9384604F0C4FF10BB7F69F5E70DA965
:1026500020F090FB30B3D2E70DF1360120F08AFB79
:1026600018B3CCE70EAA06F10C012046FFF78FFF46
:10267000F0B1C4E70DF13E0120F016FC0028BED1F8
:102680009DF83E30B3FA83F35B098DF83F3012E0DA
:102690000836306806A920F0B3FB0028AFD1706877
:1026A0000028D4D1B0680028D6D1F368002BD9D146
:1026B00030690028DED173696BB101AA06F11401FB
:1026C0002046FFF764FF002899D1019BB3F5803FB6
:1026D000B4D2ADF83C30B369002BAFD10D4B0A93A7
:1026E0000D4B206802A9CDE90B3405F0E6F800286F
:1026F00085D194F8183F002D65F3000384F8183F46
:1027000008BF24207BE700BFAD9F03002CA003007F
:1027100032A0030021280000C92E000038B50C4665
:10272000054602F079FC228A1C49284602F040FC4A
:10273000A37C1B49032B96BF1A4A1B4A52F823203D
:10274000284602F035FCE27C184902F001022846D6
:1027500002F02EFCA37CD3B9E37C9B0711D514496E
:102760006269284602F024FC04F11801284602F0B0
:1027700053FCA37C032B04D1628D0E49284602F042
:1027800017FC28460C49BDE8384002F0A5BC228D54
:102790000A49284602F00CFCEBE700BF42A5030003
:1027A000FE9D030044B1030049B4030035A00300BB
:1027B00042A0030061A0030002BC030055A0030077
:1027C00010B500238EB0CDE901330446206801AA7C
:1027D00003A905F002FB20B903A92046FFF79EFFDD
:1027E000F4E700200EB010BD37B54A8A08320C4617
:1027F000054692B2084902F0DBFB2146284602F06A
:102800000BFC238A0093A28AA37D0449284602F088
:1028100063FC03B030BD00BF70A003007FA00300C5
:102820000B4601461846FFF7DFBF00002DE9F84FC1
:102830000D463949394F044602F04EFC2C263946E4
:10284000204602F0B5FB013EF9D1AA883449334F46
:10285000204602F0ADFB1C263946204602F0A8FBBC
:10286000013EF9D12C49DFF8C880204602F034FC43
:102870001027AB88A7F11006B3423ED94146204647
:1028800002F096FBB146AB884B452AD92B68254907
:1028900013F80920204602F08BFB09F10109B94524
:1028A000F1D14146204602F083FBDFF88890DFF843
:1028B00088A0DFF888B0AB88B3421CD92B689A5D3A
:1028C000A2F120035E2B11D85946204602F070FB7E
:1028D0000136BE42EFD14146204602F0FDFB1037E3
:1028E000C7E71149204602F063FBD6E75146204670
:1028F00002F05EFBECE74946F9E70C4E5325314602
:10290000204602F055FB013DF9D120460249BDE8C1
:10291000F84F02F0E1BB00BF02BC030053A003006C
:102920009FA00300ABA00300B1A0030003A003001D
:10293000DAA30300BCA00300B9A00300B5A0030004
:1029400013460A4601461846FFF770BF024B034A7A
:10295000082102F04FBC00BFC4AE0300A4AE0300C8
:1029600010B50446086886B0E8B10DF1170120F0F3
:102970009BFAB0B99DF817001F2811D8012181409A
:102980000A4B019300232068029400934FF6FF72D4
:1029900005F02BF928B92046FFF7D8FF242000E0E6
:1029A000072006B010BD0146EAE700BF9D2F0000DA
:1029B0007FB50C4600232149ADF80E300546204670
:1029C00020F044FA064610B16068F8B90434206873
:1029D00030B30DF10D0120F067FAF8B99DF80D0044
:1029E0001F281AD801248440E6B1154B154A02214C
:1029F000284602F0FFFB144BBDF80E202868009516
:102A0000214604F0A6FE48B9242007E00DF10E018E
:102A100020F0B0F910B90834D9E7072004B070BD30
:102A20000446E1E72846FFF791FF084BBDF80E206A
:102A300028680095214604F087FEE4E7BFA0030064
:102A400070AF030068AF0300ED2E00009D2F000063
:102A5000137870B5144603F001030B4A05460E4681
:102A600002F08AFB2378094A31462846C3F3400323
:102A700002F082FB2378064A31462846C3F38003DE
:102A8000BDE8704002F078BBC6A00300D7A00300E9
:102A9000E6A0030070B5144605460E4692F90030D4
:102AA0001A4A02F069FB6378194A3146284602F057
:102AB00063FBA378174A3146284602F05DFBE378B2
:102AC000154A3146284602F057FB2379134A31460E
:102AD000284602F051FB6379114A3146284602F03C
:102AE0004BFBA3790F4A3146284602F045FB238968
:102AF0000D4A3146284602F03FFBA37A0B4A314685
:102B00002846BDE8704002F037BB00BFF6A00300C6
:102B100009A103001AA103002BA103003CA103009B
:102B20004BA103005AA103006CA103007EA1030086
:102B300070B514460E4612780E49054602F0CCFADE
:102B400063780D4A3146284603F0030302F014FB74
:102B500063780A4A31462846C3F3810302F00CFB2E
:102B60006378074A314628461B09BDE8704002F0E9
:102B700003BB00BF93A10300A3A10300B6A1030000
:102B8000C8A103002DE9F8430C461378DFF85490F0
:102B900005461646114A02F0EFFA2146104A284629
:102BA00002F0EAFA04F1040806345FFA88F8002714
:102BB000E4B2013772787B1E9BB29A420BD94A4627
:102BC0004146284602F074FA06EB470221462846A1
:102BD000FFF7AEFFEDE7BDE8F88300BF4BA10300B0
:102BE000D6A10300E1A1030070B5144605460E46C8
:102BF00013680E4A02F0C0FA23790D4A314628467E
:102C000002F0BAFA63790B4A3146284602F0B4FA68
:102C1000A379094A3146284602F0AEFAE379074A19
:102C200031462846BDE8704002F0A6BAE4A1030090
:102C3000F8A103000CA2030006A203001CA20300DB
:102C400070B5144605460E4613681A4A02F094FA07
:102C50006368194A3146284602F08EFAA368174A7B
:102C60003146284602F088FAE368154A314628467C
:102C700002F082FA2369134A3146284602F07CFAB0
:102C80006369114A3146284602F076FAA3690F4A71
:102C90003146284602F070FAE3690D4A314628466B
:102CA00002F06AFA236A0B4A31462846BDE87040B2
:102CB00002F062BA33A2030049A2030058A2030043
:102CC00068A203007AA2030090A20300A1A203005D
:102CD000B4A20300CBA2030070B5144612880D46BF
:102CE000C2F348120C49064602F0F6F914F8023B0A
:102CF0000A4A2946304603F01F0302F03DFA2946EE
:102D00003046074A02F038FA291D22463046C9B239
:102D1000BDE87040FFF79CBEDDA2030002A50300E2
:102D2000EDA2030070B504460D46094902F040F9D2
:102D300029462046082202F05DF92A7A0549C2F3A5
:102D40000013204602F00F02BDE8704002F0C4B943
:102D5000F3A203000DA303000B4601461846FFF73C
:102D6000E1BF0000014A024902F022B96AAB030048
:102D7000FF9D030010B5044602F012F90023E36042
:102D80002374237623460D4A43F81C2F2146C4E9B9
:102D90000934C4E90B4404F1340002F023FE214657
:102DA00004F1700002F029FC05492068224605F074
:102DB00043F82046FFF7D6FF204610BDAD2F000098
:102DC000592D000010B5054C13460A460146204611
:102DD000FFF7D0FF024B1C6010BD00BF780B002036
:102DE000700B002038B5037E04460D4603B9FEE79C
:102DF000242918D069B90C4902F06EF9002304F1B6
:102E00001C00237606F034F92046BDE83840FFF771
:102E1000A9BF084604F082FB044903462A4620461F
:102E200002F05AF9EAE738BD24A3030029A30300FE
:102E300037B50C460A884B881F49054602F0B8F89A
:102E400022889AB1237B8BB963889A420ED3D11A18
:102E50004FF47A734B430A2193FBF2F32846B3FBFA
:102E6000F1F201FB1233154902F0A2F862888AB12F
:102E70006368608901904FF47A714B43B3FBF2F2BF
:102E8000B2FBF1F301FB132200920D49228928467F
:102E900002F08EF80B49284602F01EF995F8181F2B
:102EA00011F0010105D1284603B0BDE83040FFF71D
:102EB00099BF03B030BD00BF36A3030063A3030076
:102EC0007BA3030002BC03000B4601461846FFF734
:102ED000AFBF000009B9FFF785BF91F901300A784B
:102EE000014902F0F9B800BFA5A303000B46014653
:102EF0001846FFF7EFBF000038B504460D4619B974
:102F0000BDE83840FFF76EBF91F839201B49C2F386
:102F1000401202F04DF805F108022046184902F06F
:102F200047F82046174902F043F8082205F1190135
:102F3000204602F05FF82046134902F039F86A8E05
:102F40001249204602F034F829462046082202F0B1
:102F500051F895F836200E49204602F029F895F9E7
:102F600037200C49204602F023F895F838200A490A
:102F70002046BDE8384002F0AFB800BFB3A303005D
:102F8000B9A30300C9A30300DD9F0300C2A303008C
:102F9000CCA30300E99F0300D4A303000B46014622
:102FA0001846FFF7A9BF0021FFF71CBFC068FFF755
:102FB000FABF037E03B9FEE71C3006F0A3B8000099
:102FC0002DE9F0410E468EB0054605A970681FF048
:102FD00017FF044640BB06F10408074658F8040FE3
:102FE000FBB250B1132F30D009ABD9191FF05CFFE1
:102FF00001370028F2D0044616E016490393304604
:103000001FF024FF039B98B1134A00922868019592
:1030100009AA05A904F047FC044628B941F2883101
:103020002846FFF7C6FF242420460EB0BDE8F081F5
:103030000A49039330461FF009FF40B1039B2868FB
:1030400009AA05A904F034FCEEE70724ECE72324E1
:10305000EAE700BFDCA30300A9340000AAB503001F
:10306000F0B585B00B680393204B00930C23054605
:103070000E4643221E490DEB030004F0F2FF044606
:1030800070B182686368511005EB6200D20748BFD7
:103090006A5806F1040148BFD358984705B0F0BDFF
:1030A000144930461FF0D2FEC8B1114F124EE259FA
:1030B000314628460C3402F00FF8B4F5497FF6D1BA
:1030C0000D4E00242A7CE3B29A420DD9EA683146BB
:1030D00052F83320284601F0FFFF0134F2E7314671
:1030E0002846FFF727F9D9E70020D7E7931A000011
:1030F00070AB0300E0A30300FF9D030030B504465E
:10310000A3B00D4601B9FEE7037E33BB012303766E
:103110004FF4C071284605F039FEB0F5C07F17D2D4
:10312000202201A928461FF077FD90B9019B23B901
:1031300023762046FFF716FE0FE001A92046FFF791
:103140008FFF30B9019B23B9237E002BF1D004E01F
:10315000062001462046FFF745FE23B030BDFFF7AD
:1031600031BE07B50190FFF76DF8019903B05DF826
:1031700004EBFFF7C3BF082201F0C2BF37B50C68EC
:10318000054654B90068694604F06EFA2846694657
:10319000FFF7F1FF204603B030BD0720FBE700003A
:1031A00030B587B0044601A9006804F0C1FC0546AB
:1031B000F8B91149204601F0FBFE01A92046FFF7AE
:1031C000DAFFBDF80C200D49204601F085FF9DF87F
:1031D00011200B49204601F07FFF9DF8122009497C
:1031E000204601F079FF9DF813200749204601F0A1
:1031F00073FF284607B030BDE5A30300F0A303002A
:10320000F9A303000DA4030022A403002DE9F04F4D
:10321000DDB01D46002304461746ADF806300E46C5
:10322000002940F015818C4901F0C2FE05F1100122
:10323000204601F0F1FE8949204601F0B9FE3846EA
:1032400004F093FA0546384604F093FA281A85B23A
:10325000CDB1102D3846A84628BF4FF0100804F015
:1032600088FA304481B2434602AA384604F085FA0F
:10327000A5EB0805424602A92046464401F0BAFEE5
:10328000ADB2B6B2E4E77649DFF81082DFF810920B
:10329000DFF810A2204601F01FFF06AA0DF106017B
:1032A000384604F0FEFA002840F0D2809DF818302D
:1032B000132BF2D801A252F823F000BF0D33000007
:1032C0001F3300002D33000041330000473300005E
:1032D0005B3300006F330000833300009B3300003A
:1032E000CF3300009B3200009B3200009B32000075
:1032F0009B320000E3330000EB330000F3330000A7
:103300002B3400009B3200004B340000204655490E
:1033100001F04EFE07A92046FFF72DFFBDE7BDF8DF
:103320001C205149204601F0D7FEB6E720464F4900
:1033300001F0D2FE07AA04212046FFF789FBACE783
:10334000079A4B49EEE720464A4901F0C5FE07AA15
:1033500004212046FFF79EFB9FE72046464901F0E7
:10336000BBFE07AA04212046FFF70CFC95E7204688
:10337000424901F0B1FE07AA04212046FFF734FCC0
:103380008BE720463E4901F013FE9DF81C200DF10D
:103390001D01204601F0B4FE7FE73A49204601F0C6
:1033A0009BFE06AD00269DF81C10374AB3B2994229
:1033B00005F1100B7FF671AF0421204601F078FE75
:1033C000691D204601F0B4FE01365D46EBE720465C
:1033D0002E4901F081FE07AA04212046FFF730FCA8
:1033E0005BE79DF81C202A499CE7BDF81C20294971
:1033F00098E72949204601F06FFE06AD00269DF8AA
:103400001C10214BB2B2914205F1040B7FF645AF7F
:103410001A460421204601F04BFEAA1D0621204633
:10342000FFF75AFC01365D46E9E74946204601F0C0
:10343000BFFD0DF11D0120469DF81C2001F0DAFDB5
:103440005146204601F048FE27E7079A414669E7C2
:103450005DB0BDE8F08F00BF2AA4030020B20300D6
:1034600002BC030041A4030050A40300EDA203002A
:1034700002A503005FA403006DA4030074A403006D
:1034800081A4030091A40300E1A10300A3A403000D
:10349000B1A40300C5A40300DAA40300F8A4030048
:1034A000E7A403008FA4030010B404461846134693
:1034B0000A4621465DF8044BFFF7A8BE2DE9F04708
:1034C0000D468AB07A49044628461FF0BFFC0646DE
:1034D00000286ED1774928461FF0B8FC00286ED12D
:1034E00028680DF102011FF045FC054600285CD15B
:1034F000BDF80210206802AA04F019FC0546002855
:1035000053D1BDF81A206C49204601F0E5FDBDF805
:1035100018206A49204601F0DFFD2046684901F085
:1035200047FD02A92046FFF726FE9DF827209DF8BB
:103530000030C2F3000161F30003C2F3400262F302
:10354000410362F3820301A968468DF80030FEF75B
:1035500081FE5C490246204601F0BEFD9DF81C201C
:103560005949204601F0B8FD049A5849204601F017
:10357000B3FD059A5649204601F0AEFD9DF81D2089
:103580005449204601F0A8FD9DF91E2052492046CD
:1035900001F0A2FD09E04146204601F009FD84E06A
:1035A0004E49204601F098FD002528460AB0BDE8A6
:1035B000F0874B4B4B4A0D21204601F01BFE206843
:1035C000DFF84481DFF84491DFF844A104F036FBD2
:1035D00000250746A9B2B942E2D2206802AA04F047
:1035E000ADFB002861D19DF827301B075DD4BDF8E5
:1035F0001A20002ECFD04946204601F0D9FCBDF854
:1036000018205146204601F0D3FC049A3649204642
:1036100001F0CEFC059A3449204601F0C9FC9DF822
:103620001D203249204601F0C3FC9DF81C20304982
:10363000204601F0BDFC9DF827202E4902F0010232
:10364000204601F0B5FC9DF827202A49C2F340022C
:10365000204601F0ADFC9DF827202649C2F38002E8
:10366000204601F0A5FC9DF826202349204601F0C4
:103670009FFC9DF827202149C2F30012204601F04B
:1036800097FCBDF824201949204601F091FC1C4903
:10369000204601F08DFC08220DEB0201204601F0CE
:1036A000A9FC1849204601F017FD013592E700BF3B
:1036B000CC9F0300D29F030030A503003DA503006B
:1036C000E5A3030048A5030051A503005EA5030080
:1036D00022A40300F9A303006AA5030002BC0300AF
:1036E000B4AF030080AF03000EA5030016A50300CE
:1036F0001DA50300FE9F030024A5030029A50300C8
:10370000C9A30300D9A30300B5A30300E99F0300E5
:10371000DF9F030037B50C6805464CB9006803F01D
:1037200089FF01462846FFF726FD204603B030BD3D
:103730000822694620461FF068FB0028F6D1286859
:10374000694603F07BFFF1E737B50C6805464CB9D5
:10375000006804F0F7F801462846FFF70CFD204604
:1037600003B030BD0822694620461FF04EFB0028FA
:10377000F6D12868694604F0E9F8F1E72DE9F04F41
:103780000D4687B06C49044628461FF05FFB06468D
:1037900000286CD1694928461FF058FB00286CD1DD
:1037A00028680DF102011FF0E5FA0546002840F0F7
:1037B000BE80BDF80210206801AA04F008FB05468F
:1037C000002840F0B4809DF814205D4902F0010209
:1037D000204601F081FC9DF81430DA0740F1A78003
:1037E0009DF80E205749204601F076FCBDF80C20CC
:1037F0005549204601F070FC9DF80F205349920274
:10380000204601F069FC9DF814205149C2F34002A2
:10381000204601F061FC9DF814309B0740F1878041
:1038200020464C4901F0C4FB01A92046FFF7A3FC48
:103830009DF810204849204601F04EFC9DF81120CB
:103840004649204601F048FC9DF812204449204694
:1038500001F042FC9DF813204249204601F03CFC57
:1038600065E05A464146204601F0A2FB56E03E4B39
:103870003E4A0921204601F0BDFC2068DFF8108196
:10388000DFF81091DFF810A104F09FFA0025074639
:103890005FFA85FB206801AA594604F098FA0028CF
:1038A0003CD1002EDDD09DF80E204946204601F087
:1038B0007FFBBDF80C205146204601F079FB9DF8B6
:1038C0000F202B49204601F073FB9DF81020294959
:1038D000204601F06DFB9DF811202749204601F09C
:1038E00067FB9DF812202549204601F061FB9DF8F9
:1038F00013202349204601F05BFB2249204601F0BA
:1039000057FB082201A9204601F074FB9DF8142002
:103910001D49C2F34002204601F0DEFB0135EBB247
:10392000BB42B5D91949204601F0D6FB00252846EF
:1039300007B0BDE8F08F00BFCC9F0300D29F03000B
:103940007AA50300D59E03003DA5030084A50300CE
:1039500093A50300E5A303009CA50300F9A30300BE
:103960000DA4030022A40300F0AE0300CCAE0300BC
:10397000F09F0300F79F030016A5030073A5030043
:10398000E99F0300C9A30300AAA3030002BC03002C
:10399000B5A30300CDA30300DF9F0300F7B50C68B8
:1039A00005460E461F4644B1204601A91FF090FA75
:1039B000044650B1204603B0F0BD00689047074967
:1039C0000246284601F088FBF4E773681BB90199A9
:1039D0002868B847EEE70724ECE700BF39A10300E9
:1039E00008B5024A024BFFF7D9FF08BD3379000042
:1039F0003B79000008B5024A024BFFF7CFFF08BD34
:103A0000A17C0000A97C000038B50C4605460B4996
:103A100020461FF01BFA30B1094B0A4A211D2846E7
:103A2000FFF7BCFF38BD084920461FF00FFA10B160
:103A3000064B074AF2E70720F4E700BFA5A50300FD
:103A4000A17A0000997A0000ADA50300B37A0000C6
:103A5000AB7A0000F7B50D461E462B6807461146A7
:103A60004BB128680DF107011FF01EFA044640B162
:103A7000204603B0F0BDFEF753FA04460028F7D005
:103A8000EFE76B6823B99DF807103868B047EFE798
:103A90000724EDE708B5024A024BFFF7DBFF08BD3C
:103AA000777C00007F7C000008B5024A024BFFF7DC
:103AB000D1FF08BDB17C0000B97C000008B5024A06
:103AC000024BFFF7C7FF08BD0D7D0000157D00000C
:103AD00008B5024A024BFFF7BDFF08BD1D7D00007F
:103AE000257D000008B5024A024BFFF7B3FF08BD71
:103AF000C17C0000C97C000070B50C4605460F492A
:103B000020461FF0A3F9A8B1261D0D4930461FF02D
:103B10009DF938B10B4B0C4A04F108012846FFF718
:103B200099FF70BD094930461FF090F920B1084B4C
:103B3000084AF1E72320F4E70720F2E7B7A50300DE
:103B4000C1A50300CB760000C3760000BFA503002B
:103B5000DB760000D376000073B50C4606460DF107
:103B60000601206815461FF005F928B963682BB9CE
:103B7000BDF806103068A84702B070BD0720FBE70B
:103B800038B50C6805464CB9006803F073FD05496B
:103B90000246284601F0A0FA204638BD024AFFF747
:103BA000DBFFFAE758A403007D760000F7B50D4669
:103BB0000646214928461FF049F930B11F4A291D00
:103BC0003046FFF7C9FF03B0F0BD1D4928461FF07E
:103BD0003DF9074668B104351A4928461FF036F901
:103BE00020B1306803F0EAFC0020ECE7164A2946D1
:103BF000E6E7164928461FF029F9D0B130680DF1E3
:103C0000070103F0E0FC054670B13C46104F9DF8FB
:103C10000720E3B29A4207D935F8132039463046D7
:103C200001F0C6F90134F2E70A49304601F054FACE
:103C3000DAE72320C7E700BF7A9E0300A9750000DA
:103C4000C8A50300CFA50300B3750000DCA30300E3
:103C5000B5A3030002BC030070B50C681646054608
:103C60001A4614B1FFF778FF70BD0068B0470349EA
:103C70000246284601F030FA2046F5E739A1030054
:103C800008B5024A024BFFF7E7FF08BD3D7C000084
:103C9000457C000008B5024A024BFFF7DDFF08BD76
:103CA000877C0000917C000073B50C4606460DF140
:103CB0000701206815461FF0F7F828B963682BB98B
:103CC0009DF807103068A84702B070BD0720FBE7D9
:103CD00070B50E460546134930461FF0B7F848B197
:103CE00028680DF0EBFE02460F49284601F0F4F972
:103CF000002070BD0D4930461FF0A8F818B12868A3
:103D00000DF0E0FEEFE733682BB1094A3146284653
:103D1000FFF7CAFFEDE707492846FEF701F900283B
:103D2000E7D0F2E7D3A50300DDA50300E2A5030079
:103D3000FF750000F775000008B5024AFFF7B4FFF1
:103D400008BD00BF6D7C000008B5024AFFF7ACFF5C
:103D500008BD00BFD17C000008B5682200210248E0
:103D600034F060FD002008BD981A00202DE9F04FC6
:103D700091B00025DFF8ACA1DFF8ACB1ADF80C5084
:103D800081460E460C1DA8462768002F00F08F8044
:103D9000584920461FF05AF838B19DF80C3043F0CE
:103DA00001038DF80C300434EEE7514620461FF035
:103DB0004DF820B19DF80C3043F00203F1E759466D
:103DC00020461FF043F820B19DF80C3043F0040367
:103DD000E7E7494920461FF039F820B19DF80C303B
:103DE00043F00803DDE7454920461FF02FF820B1D6
:103DF0009DF80C3043F01003D3E7414920461FF0F3
:103E000025F820B19DF80C3043F02003C9E73D4967
:103E100020461FF01BF820B19DF80C3043F0400302
:103E2000BFE7394920461FF011F820B19DF80C304A
:103E300043F08003B5E7354920461FF007F830B15D
:103E40009DF80D3043F001038DF80D30ABE730499C
:103E500020461EF0FBFF20B19DF80D3043F0040317
:103E6000F2E72C4920461EF0F1FF70B12022ADF898
:103E70000E2060686A440DF10E01271D1EF0D3FF6D
:103E800050B99DF80E803C468DE7234920461EF030
:103E9000DDFF054618B9072011B0BDE8F08F606856
:103EA00004A9271D1EF0ACFF0028ECD0F4E71B4945
:103EB00030461EF0CBFF58B1D9F80020106805B18C
:103EC00004AF0097434608AA03A903F0E2FAE3E728
:103ED000134930461EF0BAFF0028DCD0D9F8002084
:103EE000106805B104AF0097434608AA03A903F080
:103EF000DAFAD1E754B103004AA703008EA6030003
:103F000085B2030075B1030091A6030008A6030063
:103F100080B103008FB1030092B103009AB1030096
:103F200035C0030064B103003FA7030070B50C4621
:103F3000DEB005461C4920461EF088FF50BB1B49D9
:103F400020461EF083FF60B301261CA808F01EFA6D
:103F50006068FE231CAA0DF10601ADF806301EF0C4
:103F600062FF044690B9BDF80630ADF874311CA864
:103F700008F018FA98B102A91CA808F039FA2B68C1
:103F800002A9186846B903F068FA00B10446204651
:103F90005EB070BD0026D8E703F074FAF5E707209D
:103FA000F4E70724F3E700BF9AB1030035C003002C
:103FB0000968006834F067BD30B50C46C3B00546EB
:103FC000134920461EF042FF30B12B681149186892
:103FD00003F094FA43B030BD0F4920461EF036FF7F
:103FE00098B1FE236068ADF8063002AA0DF1060113
:103FF0001EF019FF0028EDD1BDF8063005498DF8F7
:10400000063102A803F062FAE4E70720E2E700BF06
:10401000A1B10300981A0020A5B1030038B50D46E0
:1040200004460F4928461EF011FF30B123680D49A0
:104030001868BDE8384003F002BA0B4928461EF064
:1040400005FF30B1236807491868BDE8384003F020
:104050000BBA29462046BDE83840FFF7ADBF00BF88
:104060009AB10300981A002035C0030038B50D46F8
:1040700004460D4928461EF0E9FE30B123680B497D
:104080001868BDE8384003F0E8B9094928461EF031
:10409000DDFE30B1236805491868BDE8384003F0FB
:1040A000F1B9072038BD00BF9AB10300981A00206B
:1040B00035C0030038B50D680E4C65B994F864300E
:1040C00013F0010314D000680B49D4E9002301F078
:1040D00003F8284638BD214628461EF0EFFD00288B
:1040E000F8D194F8643043F0010384F86430F1E7C8
:1040F0001846EFE7981A0020E7B1030038B50D68BD
:104100000F4C6DB994F86420C2F34003920715D5A3
:1041100000680C49D4E9022300F0DEFF284638BDD0
:1041200004F1080128461EF0C9FD0028F7D194F8D3
:10413000643043F0020384F86430F0E71846EEE799
:10414000981A0020E7B1030038B50D680F4C65B927
:1041500094F8653013F0010315D00068B4F84A20D4
:104160000B4900F0B9FF284638BD04F14A01284642
:104170001EF000FE0028F7D194F8653043F00103EB
:1041800084F86530F0E71846EEE700BF981A002083
:10419000329F030038B50D680E4C5DB994F8643059
:1041A000DB0915D00068B4F848200B4900F094FFF3
:1041B000284638BD04F1480128461EF0DBFD0028E2
:1041C000F7D194F8643043F0800384F86430F0E76A
:1041D0001846EEE7981A002058A4030038B50D6879
:1041E0000F4C65B994F86520C2F3C003120714D5CB
:1041F0000068226E0B4900F06FFF284638BD04F1BD
:10420000600128461EF064FE0028F7D194F865305E
:1042100043F0080384F86530F0E71846EEE700BF86
:10422000981A0020F1A1030038B50D680F4C65B94C
:1042300094F86420C2F38013520614D50068626CAF
:104240000B4900F049FF284638BD04F144012846D7
:104250001EF03EFE0028F7D194F8643043F040038E
:1042600084F86430F0E71846EEE700BF981A0020A3
:10427000329F03007FB50D6804469DB9144E96F831
:104280006420C2F34013920609D51249006800F079
:104290008FFE206806F1390100F056FF2B461846C4
:1042A00004B070BD694628461EF0AAFD03460028EA
:1042B000F5D1074C6A4603CA94F86420C4F8390063
:1042C00042F02002C4F83D1084F86420E7E700BF04
:1042D000981A0020AAB1030038B50D680F4C6DB9CB
:1042E00094F86420C2F3C003120715D500680C4986
:1042F00004F1200200F0F0FE284638BD294604F102
:10430000200003F0DCF80028F7D194F8643043F083
:10431000080384F86430F0E71846EEE7981A0020A6
:10432000FF9D030038B50D68104C6DB994F86420FA
:10433000C2F30013D20616D50068082204F1310139
:1043400000F0DEFE284638BD082204F1310128467F
:104350001EF05BFD0028F6D194F8643043F01003A2
:1043600084F86430EFE71846EDE700BF981A0020A4
:1043700038B50D680F4C65B994F86420C2F380031A
:10438000520714D510220068A11800F0B9FE284683
:1043900038BD1022A11828461EF037FD0028F7D19D
:1043A00094F8643043F0040384F86430F0E718466E
:1043B000EEE700BF981A0020F8B50E6805460C46D7
:1043C0005EB9214991F86520900704D5286810222C
:1043D0004C3100F095FE0020F8BD1C4920461EF02F
:1043E00035FD40B3676867B3174C94F864301A071B
:1043F0001CD42B68186803F022FB064694F864303E
:10440000DB0616D42B68186803F09CFA0246104BA2
:104410003146384603F051F80028DDD10A4A92F8B7
:10442000653043F0020382F86530D4E704F12006DA
:10443000E4E7084AEBE70649206810221EF0E5FC95
:10444000EAE70720C8E700BF981A0020E39E0300B0
:10445000E41A0020C91A002038B50D460A882549FB
:104460000446006800F0A4FDAB78D80703D52249C4
:10447000206800F09DFDAB78990703D51F4920689F
:1044800000F096FDAB785A0703D51D49206800F06F
:104490008FFDAB781B0703D51A49206800F088FD13
:1044A000AB78D80603D51849206800F081FDAB78B9
:1044B000990603D51549206800F07AFDAB785A06B5
:1044C00003D51349206800F073FDAB78DB0903D0F6
:1044D0001049206800F06CFDEB789B0703D50E496E
:1044E000206800F065FD20680C49BDE8384000F008
:1044F000F3BD00BFB5A30300F9A5030096A8030010
:1045000078B20300B7A00300BCB60300AEA8030056
:10451000D5A60300E49E0300EACC030002BC03001E
:1045200038B591F864300C469907054605D5D4E9AD
:1045300002234349006800F0CFFD94F86430DA07A5
:1045400005D5D4E900233F49286800F0C5FD94F85B
:104550006530DB0705D5B4F84A203B49286800F0F0
:10456000BBFD94F86530180704D5226E37492868DA
:1045700000F0B2FD94F86430590604D5626C3449F9
:10458000286800F0A9FD94F86430DA0609D53149AD
:10459000286800F00DFD2868082204F1310100F0C0
:1045A000AFFD94F864309B0608D52B49286800F0CD
:1045B000FFFC286804F1390100F0C6FD94F864306E
:1045C000580708D52549286800F0F2FC1022286811
:1045D000A11800F095FD94F86430190709D5204919
:1045E000286800F0E5FC1F49286804F1200200F06B
:1045F00073FD94F86430DB0905D0B4F848201A49FB
:10460000286800F069FD94F865309A0709D51749C4
:10461000286800F0CDFC2868102204F14C0100F05D
:104620006FFD94F865305B0708D51149286800F0E4
:10463000BFFC04F15C012846FFF70EFF002038BDE7
:10464000BEB10300D5B10300EBB10300F7B1030025
:104650000CB2030016B20300AAB1030023B2030098
:1046600031B20300FF9D030040B203004FB20300CC
:1046700056B2030030B50B680546C1B0084673B9A1
:104680002B686946186802F0DAFE044620B96946CC
:104690002846FFF745FF0446204641B030BD0A4991
:1046A0001EF0D4FB70B12B686946186802F0CEFE8C
:1046B00004460028F0D19DF8FE202868694600F0E5
:1046C0001FFDE9E70724E7E78FB1030030B50B686A
:1046D0000546C1B0084673B92B686946186802F0F0
:1046E000C3FE044620B969462846FFF719FF044671
:1046F000204641B030BD0A491EF0A8FB70B12B68BE
:104700006946186802F0B7FE04460028F0D19DF80B
:10471000FE202868694600F0F3FCE9E70724E7E794
:104720008FB1030073B50023019313680E46186818
:1047300001A915461EF01EFB044698B92A68506868
:10474000131D2B6000286CD0013810F8013F002B9E
:1047500065D0722B05D8612B07D8432B49D0522B3B
:1047600056D00724204602B070BD623B102BF8D80B
:1047700001A151F823F000BFE9470000DF47000026
:1047800063470000FD4700006347000063470000E7
:104790006347000063470000634700006347000071
:1047A0006347000063470000CB470000BD4700009F
:1047B0000748000063470000D54700009DF8063019
:1047C00043F001038DF80630BFE79DF8063043F053
:1047D0000203F7E79DF8063043F00403F2E79DF883
:1047E000063043F00803EDE79DF8063043F0100370
:1047F000E8E79DF8063043F02003E3E79DF8063034
:1048000043F04003DEE79DF8063043F08003D9E72C
:104810009DF8073043F002038DF8073095E7083222
:104820002A60019830609DE72DE9F047C2B00D463F
:1048300004466822002108A833F0F4FF924E934FFB
:10484000DFF878822B1D03934FF000090398D0F80E
:1048500000A0BAF1000F00F0F68031461EF0F6FA23
:1048600088B1039A131D03939DF8843043F001032C
:104870008DF8843008A950681EF020FA002868D00E
:1048800042B0BDE8F087039839461EF0DFFA50B118
:10489000039A131D03939DF8843043F002038DF8AF
:1048A00084300AA9E7E7039841461EF0CFFA70B1B9
:1048B0000398031D03939DF8843043F004038DF89F
:1048C000843010220CA940681EF09FFAD6E7704988
:1048D00003981EF0BBFA80B1039A131D03939DF851
:1048E0008430516843F008038DF8843009B90720FB
:1048F000C6E710A802F0E3FDC0E7664903981EF082
:10490000A5FA60B10398031D03939DF8843043F02A
:1049100010038DF8843008220DF15101D3E75E4970
:1049200003981EF093FAC0B1039A131D03939DF8E8
:104930008430506843F0200304A98DF884301EF0C1
:104940005FFA00289CD104AB03CBCDF85900CDF819
:104950005D10039B0433039378E7504903981EF0DE
:1049600075FA68B1039A131D03939DF8843043F0E0
:1049700040038DF8843019A950681EF0A9FA7DE72C
:10498000474903981EF062FA68B1039A131D039316
:104990009DF8843043F080038DF884301AA9506864
:1049A0001EF0E8F96AE73F4903981EF04FFA58B144
:1049B000039A131D03939DF8853043F001038DF88E
:1049C00085300DF16A01EAE7374903981EF03EFA97
:1049D00050B1039A131D03939DF8853043F00803EB
:1049E0008DF8853020A9C7E7304903981EF02EFACC
:1049F00088B1039B03AA04331FA920460393FFF742
:104A000091FE00287FF43CAF9DF8853043F004030D
:104A10008DF885309DE7264903981EF017FA002887
:104A20003FF465AF039B1A1D03928022ADF810205E
:104A3000586822AA04A91EF0F6F900287FF420AFD6
:104A40009DF8109085E71B4928461EF0FFF90646A1
:104A500048B1CDE900AA20684B4622AA08A90068FF
:104A600002F01CFD0CE7144928461EF0EFF900285F
:104A70003FF43DAFCDE9006620684B4622AA08A965
:104A8000006802F015FDFBE654B1030064B10300B9
:104A90004AA703008EA6030085B2030075B1030088
:104AA00091A6030008A6030068B2030080B10300CA
:104AB0008FB103009AB1030035C003003FA7030084
:104AC00037B50D680F4C65B994F86520C2F38003C3
:104AD000520715D504F15C01FFF7BEFC284603B070
:104AE00030BD019101AA04F15C01FFF71BFE002813
:104AF000F5D194F8653043F0040384F86530EEE7AF
:104B00001846ECE7981A0020F0B50B6885B005460A
:104B10000C4623B91A49FFF703FD05B0F0BD19494A
:104B200020461EF093F968B12D68174F174E0024E8
:104B3000E259314628460C3400F0CEFAF02CF7D179
:104B40000020EAE723680393114B00930C230DEB3D
:104B500003000D49142203F084FA034668B1826809
:104B60005B68511005EB6200D20748BF6A5804F138
:104B7000040148BFD3589847CFE72320CDE700BFB3
:104B8000981A0020E0A30300B0B20300FF9D0300C9
:104B9000B13F00000968006833F075BF30B50C46BE
:104BA00087B00546114920461EF050F9E0B102A930
:104BB000201DFDF7CCFC172807D1002360688DF875
:104BC0001030082269461EF020F938B92B681868A1
:104BD0009DF8103023B102A902F05EFE07B030BD8F
:104BE000694602F054FEF9E70720F7E7A0B3030097
:104BF000437C5A0744BF702301F8013B437C1B07E9
:104C000044BF612301F8013B437CDA0644BF6423BF
:104C100001F8013B437C9B0644BF632301F8013B41
:104C2000437C5A0644BF722301F8013B437CDB09F5
:104C30001CBF6F2301F8013B837CDB0744BF732358
:104C400001F8013B837C9A0744BF6E2301F8013BC6
:104C5000837C5B0744BF442301F8013B00230B70B6
:104C60007047037D1A0744BF732301F8013B037D9E
:104C70005B0744BF6E2301F8013B00230B707047B4
:104C8000013002289ABF024B53F8200001487047B8
:104C9000F4B3030002BC030030B50D4687B00446F0
:104CA000006800F0CBF901A92846FFF7A1FF9DF8A5
:104CB000043023B10949206801AA00F079F9687C21
:104CC00040F3010040B2FFF7DBFFAB8A0449024624
:104CD000206800F001FA07B030BD00BFFE9D030060
:104CE000A6B3030030B50D4687B00446006800F057
:104CF000A5F901A92846FFF7B4FF9DF8043023B1B8
:104D00000949206801AA00F053F9287D40F3010009
:104D100040B2FFF7B5FF6B8A04490246206800F0F5
:104D2000DBF907B030BD00BFFE9D0300A6B3030052
:104D300038B50C4605464A680068124900F038F953
:104D4000227A286804F1090100F054F90E49286814
:104D500000F02EF994F80721286804F5847100F01A
:104D600049F994F80631DB0703D50849286800F0B3
:104D70001FF9B4F8002228680549BDE8384000F062
:104D8000ABB900BFAFB30300DD9F0300B3B30300B3
:104D900042A503001BB90368186802F05DBD172027
:104DA0007047000030B589B004460D46002309491C
:104DB0000068019300F090F92B4602AA01A9204651
:104DC000FFF7E8FF20B902A92046FFF765FFF3E7E8
:104DD00009B030BDB6B303001BB90368186802F010
:104DE00044BD17207047000030B589B004460D4619
:104DF000002309490068019300F06EF92B4602AACE
:104E000001A92046FFF7E8FF20B902A92046FFF7D5
:104E100069FFF3E709B030BDC0B303001BB90368F5
:104E2000186802F02BBD17207047000030B5ADF5B3
:104E3000037D04460D46002309490068009300F0F5
:104E40004BF92B4601AA69462046FFF7E7FF20B938
:104E500001A92046FFF76CFFF3E70DF5037D30BD98
:104E6000C8B3030030B5C3B0FF2305468DF8073043
:104E700089B900680DF10703006802AA02F0E7FC97
:104E8000044628B99DF80720286802A900F038F9DF
:104E9000204643B030BD0C24FAE700002DE9F84F5E
:104EA0004FF0000ADFF86880DFF8689005460F468B
:104EB000544656465FFA8AF307EB830B57F82330C4
:104EC0007BB1414658461DF0C1FF30B949465846AE
:104ED0001DF0BCFF0446C0B130460AF1010A064687
:104EE000E8E7314628461CB1BDE8F84FFFF7BABFE6
:104EF000FFF758FF31462846FFF776FF2846314630
:104F0000FFF794FF2046BDE8F88F0720FBE700BFBE
:104F1000869E03008FB1030030B50B6887B005464D
:104F20000C467BB92868184A1849039000F0D4F859
:104F3000174A1649039800F0CFF8236813B30020EE
:104F400007B030BD134920461DF080FF0028E9D18D
:104F500023680593104B009310490C23022205A8E7
:104F600003F07FF8034668B182685B68511005EB77
:104F70006200D20748BF6A5804F1040148BFD35801
:104F80009847DDE72320DBE7D2B30300FF9D030052
:104F9000D7B30300E0A30300954B000000B4030067
:104FA00010B5C0E90012836010BDD0E90130184788
:104FB0000EB403B503AA52F8041B0192FFF7F5FFE4
:104FC00002B05DF804EB03B07047000013B50B4668
:104FD0000446064A0621684633F014FD044A694631
:104FE0002046FFF7E5FF02B010BD00BF18B4030074
:104FF00002BC0300F8B5074E07460C468D18AC42BC
:1050000006D014F8012B31463846FFF7D1FFF6E7FA
:10501000F8BD00BF9EA1030010B58AB00446282247
:105020000846694602F0E1FA03496A462046FFF75E
:10503000BFFF0AB010BD00BFFF9D030010B58CB0CC
:1050400004462D220846694602F0D3FA03496A460F
:105050002046FFF7ADFF0CB010BD00BFFF9D030061
:1050600013B5CC884B880A8864BAA4B201948988A5
:1050700049BA89B25BBA52BA00919BB2024992B264
:10508000FFF796FF02B010BD1EB4030010B58CB040
:10509000044630220846694602F0A9FA03496A46E6
:1050A0002046FFF785FF0CB010BD00BFFF9D030039
:1050B0000CB473B506AC054654F8046BFFF786FFD5
:1050C0002246314628460194FFF76FFF02B0BDE843
:1050D000704002B0704700000EB417B505AA044630
:1050E00052F8041B0192FFF760FF04492046FFF7C6
:1050F0005FFF03B0BDE8104003B070472FB403005A
:1051000010B50446FFF776FF20460249BDE810407F
:10511000FFF7E2BF02BC0300034A044B002914BF9F
:1051200011461946FFF7D8BF32B4030038A903006F
:1051300010B50446FFF770FF20460249BDE8104055
:10514000FFF7CABF02BC030010B50446FFF788FF93
:1051500020460249BDE81040FFF7BEBF02BC030075
:1051600010B50446FFF792FF20460249BDE8104003
:10517000FFF7B2BF02BC03000CB473B506AD044622
:1051800055F8046BFFF722FF2A4631462046019569
:10519000FFF70BFF04492046FFF70AFF02B0BDE806
:1051A000704002B0704700BF2FB403002DE9F341F7
:1051B000DFF83C800D4F14468E18B4420FD04146A4
:1051C0000190FFF7F5FE14F8015B0198002DF4D073
:1051D0003946013D0190EDB2FFF7EAFEF5E70449DB
:1051E00002B0BDE8F041FFF777BF00BF03A00300A6
:1051F0003AB403002DE9F04FDFF87090DFF870B09B
:1052000085B004460E461F46154603F1FF3802EBF3
:10521000810A55451CD055F8043B18F8012F03921C
:105220001846029333F041FC039A029B02309042ED
:1052300006D8C2F1010259462046FFF7B9FEE8E759
:1052400000934946134620465242FFF7B1FEE0E77D
:1052500020460549FFF740FF3A463146204605B053
:10526000BDE8F04FFFF7A2BFDAA3030042B403008A
:105270003CB4030070B5064E05460024A1592868C9
:105280000C34FFF729FF842CF8D1002070BD00BF3B
:1052900020B6030070B590F88C328AB005460E46F1
:1052A000002B48D1086898B101A91DF011FE0446F1
:1052B00058B9736843B9019BDA1D03EBD203591E39
:1052C00040F62622914205D9072420460AB070BD37
:1052D00040F627230022CDE90422184A0292184AF8
:1052E0000392184A0692184A07922E4605F21C426B
:1052F000CDE9082356F8083B0195186801AA314604
:1053000002F0F2FA04460028DFD1104B0293104B52
:1053100003932B680195186801AA05F5187102F02E
:10532000FBFA044618B1304602F0F4FACDE7012347
:1053300085F88C32C9E71824C7E700BF755600000E
:1053400031570000BD5700001D5800006D58000087
:10535000A95800002DE9F84F90F88E3204460D460A
:10536000002B5CD1D0F8986E002E58D10868002828
:1053700044D14FF49033C4F8983ED5F80490B9F175
:10538000000F44D104F5277A4FF4C07261215046D2
:1053900033F048FAD4F8985E4FF4C07805F27F15E0
:1053A000B5FBF8F5C4F89C5E072D28BF072500F073
:1053B000D0FE2746C4F8A00E05F1FF3BAE4230D028
:1053C000C7F8449EC7F848AEA7F84C8E46B9D4F843
:1053D000982EB2FBF8F308FB13230BB1A4F84C3E54
:1053E000BBEB060207F6446118BF012204F1080076
:1053F00002F086FA0C3758B90136DFE704F69861F7
:105400001DF066FD20B9D4F8983E002BB5D10720D9
:105410000023C4F8983EC4F89C3EBDE8F88F0520F0
:10542000F6E70020F9E790F88C3223B10B6823B936
:10543000083002F06BBA0D207047072070470968EA
:10544000006833F020BB70B50E6805469EB990F831
:105450008C3293B1083002F05DFA85F88E62044612
:1054600005F5187002F063FA85F88C62002C08BF0D
:105470000446204670BD0724FBE70D24F9E70B68BE
:1054800010B504464BB990F88C3243B1083002F0A5
:105490003FFA08B984F88D0210BD0720FCE70D2003
:1054A000FAE70B6833B990F88C322BB100F518701D
:1054B00002F03BBA072070470D20704790F88C32FD
:1054C00070B504460D468BB390F88E3283BBD0F88E
:1054D000983E6BBBC0F890320B6800F52776C0F899
:1054E00094620BB9072070BD08461DF0A8FCB0F50A
:1054F000C07F18D828461DF0A2FC0246A4F89822C6
:105500002968304633F066F96A68002AEAD104F562
:10551000247104F1080002F0F3F90028E3D101231B
:1055200084F88E32DFE74FF4C072E7E70D20DAE748
:105530000520D8E730B590F88C3287B005460C4688
:10554000A3B1206801A91DF05BFC58B9606805A9EA
:105550001DF010FC30B9A36833B901A905F10800AA
:1055600002F0CAF907B030BD0720FBE70D20F9E7CC
:1055700030B590F88C3287B004460D46C3B1286828
:1055800001A91DF03DFC78B9686805A91DF0F2FB82
:1055900050B9AB6853B9012201A904F1080002F027
:1055A000ADF908B984F88D0207B030BD0720FBE7DC
:1055B0000D20F9E730B590F88C3287B004460D46DF
:1055C000CBB1286801A91DF01BFC80B9686805A94A
:1055D0001DF0D0FB58B9AB685BB904F518742046D0
:1055E00002F0A3F918B901A9204602F09CF907B00E
:1055F00030BD0720FBE70D20F9E700220160A0F88D
:105600008C2280F88E22C0F8982EC0F89C2E70470D
:1056100030B50C46096885B0054621B9FFF72AFE6A
:10562000072005B030BD0E4B00930C2303910DEB0A
:1056300003000C490B2202F014FD034668B1826896
:105640005B68511005EB6200D20748BF6A5804F14D
:10565000040148BFD3589847E3E72320E1E700BFA0
:105660003F54000020B6030001490068FFF734BD35
:1056700051B4030007B5019002F03BF9019903B062
:105680005DF804EBFFF7F0BF1146D0F8982E70B527
:1056900000F52473044642B9994205D190F88E3240
:1056A00003B9FEE780F88E2270BD994200D1FEE773
:1056B000D0F89C5E013D062DC0F89C5E10D94FF4D9
:1056C000C0730B810022083002F01AF90028EBD0D9
:1056D00014492068FFF700FD0023C4F8983EE3E773
:1056E000002DE1D100F035FDD4F8A03ED4F8982E7D
:1056F000C31A59084FF4FA5606FB021620680A49E5
:10570000B6FBF3F6FFF7E8FC4FF47A730749B6FBF4
:10571000F3F2206803FB1263FFF7DEFCC4F8985E27
:10572000C2E700BF6DB4030082B40300C2B403003B
:1057300013B50446019102F0DCF8019A214602B04B
:10574000BDE81040FFF7A0BF2DE9F043984600F1F7
:105750000803994285B004460D46174600D0FEE77F
:10576000EAB103A9284602F0CDF8DFF84C900026F4
:10577000039A6AB113895268009220681A46494612
:10578000FFF7AAFC039B1A891B6803931644EFE7F3
:10579000BE4200D0FEE73146284602F0B5F8B8F127
:1057A000000F03D003492068FFF796FC05B0BDE861
:1057B000F08300BFF9B40300DCB40300F7B50D4675
:1057C00016461F46044602F094F8009733462A46D0
:1057D0002146FFF7B9FF03B0F0BD0000042A96BFD1
:1057E0000B4B0C4A53F822200B4910B504460068B5
:1057F000FFF772FCD4F8982E002384F88D3284F8D9
:105800008E321AB1C4F8983EC4F89C3E10BD00BF59
:10581000A4B6030049B4030014B5030013B504464D
:10582000019102F066F8019A214602B0BDE81040ED
:10583000FFF7D4BF38B5044690F88D02154668B11D
:1058400008492068FFF7B4FB20682946FFF71EFCD3
:1058500020680549FFF740FC012038BD08341C6072
:10586000FBE700BF1CB503004CB5030037B50D4680
:105870000446019202F055F8019B2A46214603B0E6
:10588000BDE83040FFF7D6BF38B504461D46054990
:105890000068FFF78DFB20682946BDE83840FFF718
:1058A0005FBC00BF65B5030037B50D4604460192E5
:1058B00002F037F8019B2A46214603B0BDE830408C
:1058C000FFF7E2BF70B5064E05460024A1592868CF
:1058D0000C34FFF701FC542CF8D1002070BD00BF40
:1058E000ECB6030070B50C4686B005461449204658
:1058F0001DF0ACFAB8B104340026206801A91DF0EF
:105900007FFA70B9606805A91DF034FA48B9A36838
:105910009BB92946334651F8080B01AA006802F0EA
:10592000BCFA06B070BD074920461DF08FFA10B1D1
:1059300004340226E1E70126DFE70720F1E700BF94
:10594000B8B60300BBB6030030B50D4687B00446B9
:1059500001A928681DF054FA68B9686805A91DF006
:1059600009FA40B9AB6843B9214601AA51F8083B8E
:10597000186802F097FA07B030BD0720FBE7014630
:1059800051F8083B186802F083BA000070B505466C
:10599000044655F8083B1868294602F06AFA40B9EF
:1059A0002068054A006823462946BDE8704002F099
:1059B0005BBA182070BD00BF315C00000968006848
:1059C00033F061B810B50C680346084624B1BDE851
:1059D0001040191DFCF7D6BC18681979FFF79CFB1D
:1059E000204610BD10B50123044601600371342226
:1059F0000021083032F016FF204610BD73B5302369
:105A000005460C468DF807306126DCB101220DF108
:105A10000701284601F0AFFEA8B99DF807305A2BC0
:105A200007D07A2B0AD0392B0AD141238DF80730C1
:105A300001E08DF80760013CA4B2E6E73023F5E70A
:105A40000133F3E7204602B070BD70B590B0054653
:105A50000191322603AA0DF10A0101A8ADF80A60EE
:105A60001DF0EAF9044608B124280AD1BDF80A203D
:105A700003A9284601F07FFE08B1044601E0002C8E
:105A8000E8D1204610B070BDF0B58DB00F460123AF
:105A90008DF80130054603798DF800302C22002165
:105AA00001A832F0BFFEBB687BB1386805A91DF0C4
:105AB000A7F9044600284ED178680DF126011DF0A3
:105AC00059F90446002846D108372B6869461868FA
:105AD00002F0BCF9064600283CD0214938461DF0AA
:105AE000B5F9D8B178680DF102011DF043F904460B
:105AF00080B9BDF802103046FFF780FF044648B970
:105B0000294601AB51F8080B3246006802F0CFF984
:105B1000044600B3304601F026FE1CE01149384629
:105B20001DF094F928B17968C1B13046FFF78DFFB7
:105B3000E4E70D4938461DF089F900B104373C68A7
:105B400064B138461DF07BF921460246304601F02B
:105B500012FED3E7032420460DB0F0BD0724D9E799
:105B6000BEB603008FB10300C1B6030030B50B68A9
:105B700085B005460C4623B9FFF7A4FE072005B003
:105B800030BD03930D4B00930C230DEB03000C4928
:105B9000072202F066FA034668B182685B6851101A
:105BA00005EB6200D20748BF6A5804F1040148BF00
:105BB000D3589847E3E72320E1E700BFBD59000031
:105BC000ECB60300F0B50446ADF2E45D08460D46C0
:105BD000164601F0CAFD0746284601F0CAFD1149E4
:105BE0003A1A2068FFF7E4F9206806F11001FFF780
:105BF00013FA728C0C492068FFF7DAF9284601F095
:105C0000B8FD01AA014640F2DB53284601F0B5FD7C
:105C100001AA0023135405492068FFF75DFA0DF22D
:105C2000E45DF0BDC4B60300B4A30300FF9D030010
:105C3000FFF7C8BF00F1402000F50030002382B01C
:105C4000036003680193019B02B0704708B5094BDC
:105C5000020103EB0010084B4168C3F84813C16808
:105C6000C3F808130089FFF7E5FF044B002199549E
:105C700008BD00BF40B7030000400240101B0020D9
:105C8000224B37B519460120D3E84F2FD2B28DF8F9
:105C900007209DF8072062B1BFF32F8F1C4B1A68B5
:105CA0001C4B12B91A68D2072DD51868023040086B
:105CB00027E0C3E8420F002AE6D1174B0222C3F8BF
:105CC0000823BFF35F8F03F58273124A1B684BB141
:105CD000136801331360BFF35F8F4FF48270FFF7D7
:105CE000A9FF012310680C4C022501304008C4F8BC
:105CF0000453BFF35F8F00240C7013B1136801339A
:105D0000136003B030BD1868D1E700BF011B00204D
:105D100004410240041B0020004002402DE9F041F4
:105D200006460C46FFF7ACFF0546BFF35F8FDFF872
:105D30002080D8F80475BFF35F8FFFF7A1FF3060B4
:105D4000854218BFD8F804752760BDE8F08100BF10
:105D5000004002402DE9F8434C4CDFF840E1DDE91A
:105D6000083C04EB021889469842D8F80C10D8F881
:105D70000480CEF808134FEA0215CEF844839E46FD
:105D800072D9A0EB0308B8F1000F6DDA00334CF1C3
:105D9000FF3CC84618EB00084FF000034FF0000925
:105DA00049F1000913EB08064CEB090732B94FF42F
:105DB0007A7303FB07F1A6FB03670F44344B4FEAEA
:105DC000563848EAC748A8FB0389790B03FB0199B9
:105DD0004FEA18704FEA197840EA091043F6095360
:105DE0004FEA482C4CEAD05C4FEA402EA0FB03015E
:105DF00003FB0811B6EB000867EB0106254840F2EB
:105E0000314101FB08F100FB0616A8FB0078B04405
:105E10004FF0FF36BE1947F6FF7048EB00004FEA1F
:105E2000D03818EB0E084FF0000141EB0C0C28F0B5
:105E30007F4640F2FF10A8FB038903FB0C9918EB87
:105E4000000049EB0101D2B1400A40EAC150490AC1
:105E5000114B124A2B44C3E90201635903F5A8739D
:105E600042F82360BDE8F883704592D2AEEB000E95
:105E7000BEF1000F8DDA00334CF1010C89E74FF4CD
:105E8000FA22002332F0D4FAE2E700BF40B7030061
:105E9000D07B63087B2DE8BD101B00200040024032
:105EA00073B5064601A96846FFF738FF019843F627
:105EB000095140F2FF120023E1FB0023540A44EA97
:105EC000C3545D0A009A084BE3FB024546B92046DD
:105ED00029464FF47A72002332F0AAFA04460D469E
:105EE0002046294602B070BD0080841EF8B51A4DC8
:105EF00005EB00130446060118890F46FFF79AFECA
:105F00002046FFF7CDFF02460B463FB91349314407
:105F1000D1E902018B4208BF82421CD33544104BA9
:105F20006A68C3F84823022CEA68C3F808230AD039
:105F3000032C0CD0094A012393550A4A1370BDE87B
:105F4000F84000F032BFBDE8F8402BF051BCBDE88E
:105F5000F8402AF05DBFF8BD40B70300101B0020D9
:105F600000400240001B00202DE9FF410746884603
:105F700002A803A91646FFF7D1FE039843F609517C
:105F800040F2FF120023E1FB0023540A44EAC35409
:105F90005D0A029A294BE3FB024546B92046294691
:105FA0004FF47A72002332F043FA04460D4632462B
:105FB000CDE9004541463846FFF7CCFE204B039A19
:105FC000D3F804359A4203D003A902A8FFF7A6FE2E
:105FD000039B43F60950991C40F2FF120023E0FB9B
:105FE0000123540A44EAC3545D0A029A134BE3FBAB
:105FF000024546B9204629464FF47A72002332F012
:1060000017FA04460D460F4A02EB0612D2E90223A4
:106010009D4208BF94424FEA061107D30121304642
:10602000FFF764FF40BF04B0BDE8F081064B0B44AE
:10603000DA68034BC3F80423F5E700BF0080841E31
:1060400000400240101B002040B7030038B52A482A
:106050004022002132F0E6FB284B00201860284B3C
:106060001870284B00240025C3E900452EF07CFB66
:106070002EF0B8FB0028FBD0234BC02283F824234A
:106080001022C3F884215A60204A0023C2F8083540
:106090004FF48270FFF7CEFD0223C2F844334FF471
:1060A000A070C2F80433FFF7C5FD4FF48033C2F887
:1060B00048334FF4A270C2F80833FFF7BBFD4FF42A
:1060C0000033C2F848334FF4A470C2F80833FFF726
:1060D000B1FD4FF48023C2F848334FF4A670C2F8E4
:1060E0000833FFF7A7FD4FF40023C2F84833C2F886
:1060F00008330123136038BD101B0020041B00204F
:10610000011B0020081B002000E100E000400240CD
:106110002DE9F04100260B4F0446B0460A4D87F8A2
:1061200000802B781BB120462E7003F01DF82B7CCD
:106130001BB120462E7403F04FF83B78002BEDD1B5
:10614000BDE8F081001B0020101B00200120FFF79C
:10615000A7BE08B5FFF7FAFF4FF47A72002332F0BA
:1061600067F908BD084611460022FFF7FDBE002072
:10617000FFF76CBD08B5FFF7E9FF08BD08461146FB
:106180000122FFF7F1BE0120FFF760BD70477047A5
:10619000044B4FF48022C3F80823BFF34F8FBFF3A3
:1061A0006F8F704700400240024B4FF48022C3F8CB
:1061B0000423704700400240FFF7DCBF1F207047F8
:1061C0000222FFF7D1BE0220FFF740BD2DE9FF48B4
:1061D000154F164E40F2FF14002502A903A8FFF741
:1061E0009DFD029A43F6095320462946E3FB02012E
:1061F000400A039B40EAC150490AE7FB03018C4671
:1062000083460322CDE900BC3E215846FFF7A2FD9C
:106210004FF40023C6F80433D6F80435029A9A42A4
:10622000DBD104B0BDE8F0880080841E004002404D
:1062300037B5044603200D46FFF732FE0322CDE9B1
:10624000000129462046FFF785FD034B4FF400224D
:10625000C3F8042303B030BD004002400320FFF721
:10626000F5BC000008B5224B01221A604FF4A07063
:10627000FFF7E0FC1F4A4FF48033C2F848334FF475
:10628000A270C2F80833FFF7D5FC4FF40033C2F810
:1062900048334FF4A470C2F80833FFF7CBFC4FF437
:1062A0008023C2F848334FF4A670C2F80833FFF7D2
:1062B000C1FC4FF40023C2F84833C2F8083302236C
:1062C000C2F808334FF48270C2F84833FFF7B2FCCB
:1062D000FFF7C4FF084B1022C3F88420C3F88421C1
:1062E000002283F82423BDE808402EF067BA00BFDF
:1062F000044002400040024000E100E000487047D6
:106300004C410240014B986B704700BF101B0020AE
:10631000114B1B6870B52BB1104B0222C3F8082338
:10632000FFF7AEFC0E4D0D4E0024D6F80423EB68AB
:106330001A420AD02B8903F1402303F500331B686E
:106340001BB10021E0B2FFF7D1FD0134042C05F1AF
:106350001005EAD170BD00BF044102400040024078
:1063600040B70300FFF7F2BE012303FA00F0084A2A
:1063700082B0C04352E8003F0193019B0340019368
:10638000019B42E800310029F4D102B0704700BF00
:10639000C01B0020074A82B052E8003F0193019BD6
:1063A00023F001030193019B42E800310029F3D15E
:1063B00002B07047C01B00200123094A82B003FAD3
:1063C00000F052E8003F0193019B03430193019BBE
:1063D00042E800310029F4D102B000F0E6BC00BF71
:1063E000C01B0020F4230B70CE234B7036238B7020
:1063F0004FF0805382B01A6E5B6EC1F80330CA71E1
:1064000002B0704707B501A8ADF804102AF08AFD64
:1064100003B05DF804FB000010B40748CB1D1C78E6
:1064200000F8014B8B4203F1FF33F8D15DF8044BC8
:1064300008462AF079BD00BF901B002007B501A8CF
:10644000ADF804102AF072FD03B05DF804FB000003
:1064500008B5134B01221A70124B7F221A70124B8F
:10646000124A1A60124ADA60124A00231370124A62
:10647000184659010133102B8850FAD10F4A0023D6
:106480007F210133102B02F8011BFAD10C48202286
:10649000002132F0C7F9BDE808402AF054BD00BF22
:1064A000891B0020881B0020E01D0020111E0020F9
:1064B000001E0020D41B0020D81B0020A01B0020A1
:1064C000501B002008B52AF083FD2AF061FD024B25
:1064D00000221A6008BD00BFC01B002008B50C4B8D
:1064E0001B7883B92AF068FD04280ED004D802284E
:1064F00014BF0220012008BD0638C0B2022834BFF4
:1065000003200220F7E70020F5E70320F3E700BFB0
:10651000891B0020034B1A7812B1002018707047B5
:106520000D207047891B002010B5084C22784AB90D
:10653000FFF7D4FF012803D0054B1B68DB0703D509
:1065400001232370002010BD0D20FCE7891B0020D3
:10655000C01B002008B52AF03EFD28B900F06FFDF1
:10656000FFF718FF002008BDFFF714FF0020FFF71A
:1065700023FFF7E70B68F7B58A8803F8012C074675
:106580000C462AF019FD022801D100F057FD2046E3
:1065900000F07CFC90B1204600F07DFC70B1A37E41
:1065A0009B070BD41E4B2046197800F092FC1D4B24
:1065B000196820464A1C1A6000F08DFC2669A079F3
:1065C000D6B1256800903346681E626901212AF021
:1065D0001CFD0028064612BF00250D250126FFF7E9
:1065E000D9FE214638460BF04BFA16B90220FFF7C8
:1065F000E3FE284603B0F0BD2AF07AFCA57E2068B1
:1066000015F0040505D0013835462AF03DFD012678
:10661000E5E7294601382AF0ECFC0646DFE700BF33
:10662000981B00209C1B002000487047E01D0020A4
:1066300008B5064B4FF4206043F0010398472AF059
:10664000F2FCBDE808402AF0F0BC00BF80B70300B0
:10665000FB2070472AF0FABC08462AF0F9BC08462D
:106660002AF0F8BC07B5ADF8041001A800212AF003
:10667000F3FC00280CBF0320002003B05DF804FBEE
:1066800008B5084601212AF0E7FC00280CBF0320CA
:10669000002008BD07B5ADF8041001A800212AF0BC
:1066A000E4FC00280CBF0A20002003B05DF804FBC6
:1066B00008B5084601212AF0D8FC00280CBF0A20A2
:1066C000002008BD00202AF0D3BC01202AF0D0BC55
:1066D0004FF47A7310B55A430A4C0B4B22600846AC
:1066E0001970FFF757FE2AF003FC20682AF095FC8A
:1066F00020B10520FFF738FE002010BD0520FFF770
:106700005BFEF9E78C1B00208B1B002010B50C46AC
:1067100021B12AF000FC2070002010BD0720FCE70A
:1067200013B50C4661B101A82AF0ACFC054A9DF8EE
:10673000053012785E3B9B1A2370002002B010BD1A
:106740000720FBE7991B002013B50D4B1B7819445C
:1067500048B210F15E0F10DB0024ADF805408DF853
:1067600007408DF804402AF0E7FB8DF8050001A8EA
:106770002AF081FC204602B010BD0720FBE700BFD5
:10678000991B002021B1034B1B780B700020704730
:1067900007207047991B0020F7B50B4C054601A850
:1067A0000E4694F900702AF06DFC9DF805302178B2
:1067B00026705E3B591A49B22846FFF7C5FF00B163
:1067C000277003B0F0BD00BF991B0020F8B500266C
:1067D000404D044637462B684BB1204600222946DF
:1067E0000BF046F928682F6001382AF01AFC0136B0
:1067F000102E05F12005EED1374D2B689F0714D5DB
:10680000364E0120FFF7B0FD32683549002A204698
:106810004FF0000318BF32460BF03AF9306820B150
:1068200001382AF0FEFB002333602B685E0708D591
:106830000220FFF799FD2A490F23002220460BF082
:1068400027F92B68180708D50320FFF78DFD244989
:106850000E23002220460BF01BF92B68D90608D521
:106860000420FFF781FD1F4B00211A7820460BF012
:10687000FFF82B685A0608D50620FFF775FD1A4B5E
:10688000204693F900100BF010F92C6814F0010465
:1068900008D02AF0A0FB0446A0B900F0D0FB2046A7
:1068A000FFF762FD2B689B0611D5104B18782AF074
:1068B0001FFB0F4B18682AF0B0FB28B9BDE8F84061
:1068C00000F073BA0124EDE70520FFF74DFD002C21
:1068D000F4D1F8BDD81B0020C01B0020501B0020A5
:1068E000E01D0020D41B00208A1B00208B1B0020F1
:1068F0008C1B00202DE9F84FDFF8D8B01F46044666
:10690000894692460023D8465D0155F80B100029B0
:1069100050D10BEB05062022304631F083FF631C7B
:106920004BF805302378B38086F8159086F816A0CA
:106930002AF0EDFAB0716278DFF89C9012F0200234
:106940003FD1454405F1100AEB7D62F300038AF85C
:106950000730FFF70FFC2178804638462AF0EFFA1F
:106960000746FFF7F3FB0246A8EB0700121A61F196
:106970000003C5E90223002389F800306378124C34
:1069800013F0200F10D0304600F076FA60B19AF87C
:106990000730227862F341038AF807300B4B1B68FB
:1069A0002B610B4B1B782B7500232370BDE8F84F30
:1069B00000F0FBB90133102BA6D1002301341C6079
:1069C000FFDE99F80020BCE7761B0020701B00203A
:1069D000741B0020D81B0020751B0020431E092BB0
:1069E00009D8DFE803F00516191C1C1C1C051C1C2B
:1069F0000D4B12221A700D4A002313700C4A0828FE
:106A0000137001D005280DD1074A00201370FFF73D
:106A1000D3BC054B1122EDE7034B1622EAE7024BEC
:106A20000122E7E70420F2E7D41B0020751B0020B9
:106A3000761B002070B54278224B234EC2F3001122
:106A400019700021130788B00446317033D51C2219
:106A500001A831F0E7FE631C009368462378ADF887
:106A6000043000F029FA0446684600F014FA10B326
:106A70000CB3164B1B789C421FD05A1E94421ED05A
:106A800001339C4217D1124B124D134A29681160F1
:106A9000124A02931470214601226846327000F0B7
:106AA00018FA296868464B1C2B6000F014FA0C4950
:106AB000684600F0DFF908B070BD0A4BE4E70A4B06
:106AC000E2E700BF751B0020761B0020981B00200A
:106AD000B01B00209C1B0020701B0020741B00209A
